:020000040800F2
:10000000001000205D6F0008390D0508390D050846
:10001000390D0508390D0508390D0508390D050894
:10002000390D0508390D0508390D0508390D050884
:10003000390D0508390D050811BC0008390D0508F2
:10004000390D0508390D0508390D0508390D050864
:10005000390D0508390D0508390D0508390D050854
:10006000390D0508390D0508390D0508B149000895
:100070000BFF0408390D0508390D0508390D050871
:10008000390D0508390D0508390D0508390D050824
:10009000390D0508390D0508C5770008390D050823
:1000A000390D0508390D0508D1730008B173000832
:1000B000390D0508390D05085907020851120208C3
:1000C000619A05085D9A0508C9090208779A05082A
:1000D000659A050821120208699A0508911202081A
:1000E0007D130208390D0508390D0508390D05087D
:1000F000390D0508390D0508390D0508390D0508B4
:10010000390D0508390D0508390D0508390D0508A3
:10011000390D0508390D0508390D0508390D050893
:10012000390D0508390D0508390D0508390D050883
:10013000390D0508390D0508390D0508390D050873
:10014000390D0508390D0508390D050879C2000873
:10015000390D0508390D0508F1AB0608A5EA0108B7
:10016000390D0508390D0508519A0508579A0508F3
:0C017000390D0508390D0508390D05088A
:10017C00F0B5114A114C124E00F00105E3695F070E
:10018C0013D40DB9334213D103EA00078F4207D1C0
:10019C000B4A1A40002A0CBF00206FF00100F0BD82
:1001AC00013AEBD16FF00200F9E74FF0FF30F6E7C0
:1001BC006FF00100F3E700BF809698000000035039
:1001CC000200010070B50B4BD96911F480310DD1CF
:1001DC0001244FF48072084E084DF46020462C64C4
:1001EC001A61FFF7C5FF3464EC6070BD6FF001005D
:1001FC00FBE700BF00000350001003500020035029
:10020C0038B54FF480320E4B0E4C9A66E56941F6C8
:10021C00713315400122E3630B4B0021DA6002239A
:10022C00606121202361FFF7A3FF10B92120FFF7A4
:10023C009FFF0122054BDA600DB10023E36338BD4B
:10024C000090005000000350001003500020035099
:10025C0070B5134C6061E3695B071ED40E4656F80B
:10026C00043B8D18A361AE420BD104230021212045
:10027C002361FFF77DFF58B9BDE870402120FFF7DF
:10028C0077BF08210846FFF773FF10B104232361E1
:10029C0070BD56F8043BA361E5E74FF0FF30F7E77C
:1002AC00000003502DE9F84315464FF48032184BEB
:1002BC0089469A6603F51C33DF690646174041F6FA
:1002CC007132DA63012203F58053DFF84C80DA6077
:1002DC0055B9284601220F4BDA601FB10022A3F555
:1002EC000053DA63BDE8F88306F5005404EA080409
:1002FC00A41BAC4228BF2C46494622463046FFF789
:10030C00A7FF0028E6D12644A1442D1BE0E700BF3F
:0C031C00009000500020035000E0FFFFA4
:100328002DE9F04100231546C2E900014FF47A7225
:1003380080460F464EF0BCF918A3D3E900230446C3
:100348000E46404639464EF0B3F9134B80B2288129
:100358005843241A66F100064FF4616200232046D0
:1003680031464EF0A5F94FF46163C0B2A872584304
:10037800241A20464FF03C024FF0000366F10001BA
:100388004EF096F9C0B2E872C0EB0010A4EB8004FE
:100398002C73BDE8F08100BF80510100005C260588
:1003A80000000000000000002DE9F04F93B0CDE9F7
:1003B8000A32DDE91C530E9353EC102BCDE90801EA
:1003C800104619468DED060B1E9E4DF049FF80B173
:1003D800DDE906014FF0FF32C54B4DF069FF40B92A
:1003E800DDE906014FF0FF326FF480134DF042FF54
:1003F80070B1DDE908019DED060B0E9B1E96CDE957
:100408001C53DDE90A3213B0BDE8F04F00F088B99B
:100418000022DDE9060100234DF02CFF002800F042
:100428003381DDE906A303F1004BCBF30A5016F440
:100438008063A0F2FF3008BF06250F934DF03EFC05
:100448009BA3D3E900234DF0A3FC9BA3D3E900238E
:100458004DF0E8FACBF31304894644F07F51804607
:100468000022A44B504641F440114DF0D9FA94A310
:10047800D3E900234DF08CFC02460B464046494622
:100488004DF0D0FA4DF01EFF04464DF017FC8EA338
:10049800D3E90023804689464DF07AFC0022964B2A
:1004A8004DF0C0FA4DF00EFF89A3D3E900230746AB
:1004B800494640464DF06CFC8046384689464DF02A
:1004C800FDFB85A3D3E900234DF062FC02460B46F1
:1004D800404649464DF0A4FA02460B46CDE90C23A6
:1004E8004DF056FCDDE90C23804689461046194636
:1004F8004DF098FA0022CDE91001804B404649465C
:100508004DF070FD00227E4B4DF08CFA02460B46F2
:10051800404649464DF066FD00227A4B4DF082FA7E
:1005280002460B46404649464DF05CFDDDE90C238A
:100538008046894600204FF080414DF071FA02460E
:100548000B46404649464DF06DFA02460B46DDE93A
:1005580010014DF047FD07F2FF3700226A4B4DF0BE
:1005680061FA00223B054DF013FC52465B4680467B
:1005780089464DF09DFE002840F08980CDE90C8920
:1005880004F16303C72B34BF0427052731051BD5A6
:1005980053A3D3E90023504659464DF07FFE002867
:1005A8007FD051A3D3E90023504659464DF062FE4F
:1005B800002876D00027A542C6BF2C1B04F1FF35C2
:1005C80000253C4646F480660E9B9F422CBF4FF0A8
:1005D8000008A3EB070816F0020903D0002F18BF84
:1005E8004FF000083CB1DDE90C23504659464DF068
:1005F800F9FC82468B46DDE90601002200234DF016
:1006080039FE10B10BF100439B46DDE9080126F4E1
:100618000063CDE90183DDE90A324BEC10AB0095AC
:1006280000F07EF802465FB3DDE9091316F0200FEB
:1006380000F10105089E0CBF65204520B047DDE9A3
:1006480008010523002205930A23002CCDE9023274
:1006580007F1FF374FEAD473B8BF64422A460193C3
:1006680004970A9B009458F066FC0246B9F1000F03
:1006780006D00B9BC41A0B9B1A190E9BA34245D894
:10068800104613B0BDE8F08FDDE906ABCDE60022D9
:10069800404649461A4B4DF0A5FC013CCDE90C01FA
:1006A8006EE7002D90D00F9B002B8DD0013D8BE77E
:1006B800FB799F501344D33FB3C8608B288AC63F49
:1006C80061436F63A787D23F71A379094F930A40AB
:1006D8001655B5BBB16B0240EF39FAFE422EE63F24
:1006E8002D431CEBE2361A3F0000000080842E41A7
:1006F800FFFFEF7F0000F83F0000E03F00002C40C4
:1007080000002440000018400000F03F2020DDE9F0
:100718000913089DA8470134ADE700BF0000000099
:100728002DE9F04F97B05BEC10ABDDE92057CDE930
:100738000501CDE90723504652465B465946229E9D
:100748004DF08EFD70B90323CDE902760193B04BCD
:100758000093DDE90501DDE9072358F00CFB17B02C
:10076800BDE8F08F4FF0FF326FF4801350465946C2
:100778004DF080FD28B10423CDE902760193A54B05
:10078800E6E74FF0FF3250465946A34B4DF090FD37
:1007980068B1A24A06F00403002B08BF0322A04B4D
:1007A8001CBF13460422CDE902760192D0E75046D9
:1007B80093A3D3E9002359464DF07AFD38B992A3A3
:1007C800D3E90023504659464DF054FD68B1DDE9A0
:1007D8000723DDE905014BEC10ABCDE92176209527
:1007E80017B0BDE8F04FFFF7DFBD002200235046E9
:1007F80059464DF03FFD002800F09A805B4652466E
:10080800002000214DF00CF9012382468B46099304
:1008180016F4806400F08E80092D40F28E8000244A
:1008280030210EABA5F109020134202C03F8011B7D
:10083800A5EB040901D09442F6D1594650464DF033
:1008480041FD784B054603EBC90393ED007B8DED25
:100858000A7B4DF033FA02460B46504659464DF096
:10086800DFF8DDE90A234DF093FA02460B46CDE99D
:100878000C234DF04FFD80464DF010FA02460B4612
:10088800DDE90C014DF0CCF802460B46CDE90C230E
:100898000022654B4DF00CFD002851D008F10108ED
:1008A80040464DF0FBF902460B46DDE90A014DF0E2
:1008B800EBFC10B14FF000080135B9F1000F50D131
:1008C80028464DF0FBF902460B46504659464DF076
:1008D800A7F80022544B804689464DF0CBFC30B136
:1008E800002240464946504B4DF0E2FC10B1E80763
:1008F80000D501350A210EAB1A19202C0AD095FB18
:10090800F1F001FB1055303502F8015B0134054662
:100918000028F2D106F00302012A57D1002F55D042
:10092800099A12B916F00C0F00D0013F302245E0A9
:1009380009906DE74FF006097FE7A94600247CE798
:100948000022DDE90C01384B4DF094FC0028B4D1AD
:10095800B8F1000F02D018F0010FAED008F101086D
:10096800ABE70A210EAB2344202C0ED0B8FBF1F0E4
:1009780001FB1082B8F1090F02F1300209F1FF39C9
:1009880004F1010403F8012B11D83021A1440EAA67
:10099800202CAFD0A14504F101030AD11C4609F16E
:1009A80058030DEB03092E2309F8203CA2E78046E3
:1009B800DAE7A1541C46EBE71A550134A74205D9DA
:1009C800202CF9D1CDE902760194C1E6202CF9D08A
:1009D800099A3AB12D2104F158026A4402F8201C00
:1009E8000134EFE7710704D504F158022B216A445A
:1009F800F4E73207E6D504F1580220216A44EDE70E
:100A08000000000065CDCD410000000065CDCDC1DE
:100A1800CB060708CF060708FFFFEF7FC2060708C7
:100A2800C7060708D80607080000E03F00000000D6
:100A3800F0B5934C9FB02288A3780021ADF80C2024
:100A480013A82C228DF80E3067F025FA4FF00233E8
:100A5800159340F20B130AAD0434ADF874300FCC83
:100A68000FC50FCC0FC52368864A2B60864B874D70
:100A780006930023CDE9073309934FF0FF33284647
:100A880083492B6020F082FD0446002853D1286852
:100A9800431C06D140F2A4417E4B7F4A7F484DF06B
:100AA80097FF03A920F0B0FD0446002843D1286829
:100AB80058F0ACFB7A4E7B4F3070286858F0A8FB92
:100AC8003870286858F0A6FB774B78491870286862
:100AD80021F098F8044600282DD13378744E4BB98C
:100AE800744825F0F7FA3060D0B940F2DC41724B17
:100AF800694AD3E7714825F0EDFA30600028EFD055
:100B0800C189286820F0E2FF33682146586825F03B
:100B18001BFB044678B9674825F0DCFA306090B1D1
:100B2800C189286820F0D2FF33680421586825F06D
:100B38000BFB044638B1234622210220604A59F0B3
:100B4800FDFA1FB0F0BD09F08FFF5E4BCDE904013F
:100B580004AAA3F1080112F8010B03F8010D994248
:100B6800F9D13B78002B46D15749286859F07AF8D3
:100B780004460028DFD15549286859F05DF8044635
:100B88000028D8D15249286820F040FE04460028A1
:100B9800D1D139A3D3E90023CDE90023286859F03E
:100BA80063F804460028C6D14A4A4B49286859F0D8
:100BB800BBF804460028BED1484A4949286859F07C
:100BC800B7F804460028B6D10121286820F03AFD7C
:100BD80004460028AFD1A023424A06A8D380424A3F
:100BE80013600AF015F8414B186088B940F2255196
:100BF8003F4B294A52E71C22002116A867F04BF9FF
:100C0800286813A921F004FA04460028ACD092E71A
:100C18002246012108200AF055F9364B186020B900
:100C28004FF4A561344B1C4A38E7224601210820BD
:100C38000AF048F9314B186020B940F22B51304B7B
:100C4800154A2BE72F4A3049304827F073F82F48C8
:100C580041F02EFF00212E480AAA0AF08DF82D4BEC
:100C6800186000287FF46DAF40F237512A4B0A4ACA
:100C780014E700BFAFF30080C88D01C10340000036
:100C8800248507083D5E02083F7A0708FC4E0020CD
:100C980028BE0020547A0708258407080E7807081C
:100CA800CFAD0020CEAD0020CDAD00200700110053
:100CB800B83E0020F1B405087B7A0708DBB40508C4
:100CC800067B0708D8AD002022850708208507087D
:100CD800004F0020BEBF002018150020C0BF002014
:100CE800F43E002068BE0020684F00207C4F0020A2
:100CF800937A0708784F0020AF7A0708744F0020CE
:100D0800CC7A0708EC7A0708F96202081C4F002021
:100D180061740208804F0020F57A0708000000007F
:100D28002DE9F34705465A4C22211020594A59F01B
:100D380005FA14222946204667F020F9A27B564B73
:100D4800DFF8A0A11A70637C00228AF80030002323
:100D5800CDE90023DFF8908100224FF40073D8F822
:100D6800000058F081FF064620B10126304602B047
:100D7800BDE8F087494B4A4F1B787BB9494825F0B5
:100D8800A9F904463C60FCB9474A2221022059F0DF
:100D9800D5F90122454B21261A70E7E7444B454C0B
:100DA8001A88454BD8F8000053F82210434A8B683C
:100DB80021603B6020F014FD2268414B9468242296
:100DC8001B8802FB0344DDE73E4B1C60394BD3F81C
:100DD8000090B9F1000F07D000232420D9F80C1097
:100DE8008B4208D100251AE040F2ED71364B374AA4
:100DF80037484DF0EDFDD9F8085000FB0355EA6976
:100E08005278120912F00E0F2BD0052A29D8314B2F
:100E18000021EA89B3F900003D6025F0CDF91AA355
:100E2800D3E90023CDE90023D8F8000058F01CFFCF
:100E3800D9F80820AA4207D0274B3A600421D28962
:100E4800B3F9000025F0B8F9244BE2893C601A8018
:100E5800234B1B783BB926F0B7F9012025F042FE59
:100E680084E70133BCE79AF800301B0913F00E0F32
:100E7800F1D101220721D8F8000059F023F8002801
:100E8800E9D072E7AFF30080C88D01C103420000CA
:100E9800BC3E0020DB7E0708C4AD0020C8AD0020A2
:100EA800B83E002039620208F77E0708C6AD002068
:100EB8007A580020AC3E0020F0B80020495E0208B5
:100EC80078580020B43E0020337F0708E3820708E3
:100ED8000E780708C2BF0020C4BF0020B8BF00209A
:100EE800CEAD0020C3AD0020FC4E00200000000065
:100EF8002DE9F84390F8E861054644683EB90220B8
:100F08002721414A59F01AF93046BDE8F88394F987
:100F18000130002B1ADA731E5BB2637000EB4313C7
:100F280093F825302370A0684CF0DAFE32A3D3E999
:100F380000238046894694F901704DF0B9F9F8B15B
:100F4800002F1DDD013F0023677024E09E422278B8
:100F580005DD00EB431393F825309342E3D00023DB
:100F680005F1250163705801085C904208BF637061
:100F780001339E42F7D8731E637000232371D2E7B2
:100F880040461FA3D3E9002349464DF091F9F0B13B
:100F98002379E3B1013B237194F9013005F5F5702C
:100FA80005EB431393F82530237085F8EA310523C0
:100FB80095F8022285F8EC3185F8F02100230E22FD
:100FC80085F8EB3185F8F22185F8F1319DE7404647
:100FD8000BA3D3E9002349464DF04CF90028DBD098
:100FE80023790133DBB2092B2371D5D9013EBE42E7
:100FF800D2DD0137A7E700BF666666666666E63F2C
:101008009A9999999999B93F4248080800000000AF
:101018002DE9F8432DED028B8768054638461646BC
:101028000C464CF05DFE28A3D3E900238046894690
:101038004DF03EF988BB26A3D3E900234046494634
:101048004DF018F960BBF7EE007A07EE107A87EEDC
:10105800878A6B7F607F0122834224D0002142F07F
:10106800BDF9012204463146687F42F0B7F90444CD
:1010780004F2D5702860D8B107EE900AF8EE677AC6
:101088009FED0D7A67EE887A87EE270ABDEC028B12
:1010980010EE103AEB60BDE8F8839FED088AD8E7B8
:1010A8009FED078AD5E73146184642F097F9E1E700
:1010B8009FED040AEAE700BF00007A44E4388E3F57
:1010C80000401C4600000000CDCCCCCCCCCCEC3F82
:1010D8009A9999999999B93F2DE9F74F064690F849
:1010E800E8010D469146A0B37468A3690133A36172
:1010F800A37D06EB43131A7F02441A77D4E907321B
:10110800C3EB520207EE902A4000B8EE677A07EE6A
:10111800900AF8EEE76AF4EEC76AF1EE10FA0BD51A
:1011280007EE903A37EE667AF8EE677A77EE877AC6
:10113800FCEEE77AC4ED077A4FF0000BD9450BD8DF
:1011480042F21073A2699A4282BF0023C4E90633AF
:10115800236203B0BDE8F08FB5F802A02F79BAF189
:10116800000F2ED038464CF0A9FDCDE900015046BD
:101178004CF0A4FD02460B46DDE900014CF032FFBD
:1011880002460B4600204C494CF04AFC4DF0E2F870
:1011980007EE100A96F80332AAEB0700034486F814
:1011A800033294F8243033B394F825305B4522D1C8
:1011B800BAF1000F08D1C4F820A00BF1010B0635D5
:1011C800BCE7B7EE007AE5E7E3690133E3612A7823
:1011D800002AF2D00023984696F8E8C106F10801E3
:1011E8009C450FD8B8F1000F14D127210220334AAB
:1011F80058F0A4FFE1E72A78002ADED0BAF1000F00
:10120800DBD0E7E791F81DE00133964508BF884633
:101218002031E5E7002288F81420B8F81020D8F823
:10122800043017440133BAB2C8F80430A8F8107073
:101238001AB198F81D2086F81422F7EE007A012BCF
:1012480077EEC77A8CBFB3EE097A9FED1D7AB8F8AE
:10125800122088BF67EE877A0244A8F81220D8F8CF
:1012680008208CBF9FED177A67EE877A06EE102A62
:10127800DFED156AE6EE077A87EEA67A17EE103AE2
:1012880017EE100AC8F808304CF02AFD08A3D3E975
:1012980000234CF0EFFF18B1FF2388F815308CE7D6
:1012A80098F91530013388D10423F6E7AFF30080AD
:1012B800666666666666EE3F0000F03F62480808AC
:1012C80000004842000096420000C84200000000AA
:1012D8002DE9F04F2DED028B054600274FF0200A2F
:1012E8004FF0080B0B4608204D4A87B08846272147
:1012F80058F024FF95F8E83127210820494A58F08A
:101308001DFF6C6805F10806E37D23716371637541
:1013180095F8E891B9450DDC3FA7D7E900674FF08C
:101328000008AA46C346C14546D807B0BDEC028BA3
:10133800BDE8F08FE17D42461AFB01B130462944F1
:10134800FFF766FE96F81D900495F0684CF0C8FC0F
:10135800CDE90201B0684CF0C3FC4B46CDE9000171
:10136800314A2721082058F0E9FE2379D6ED037A7F
:1013780005EB431292ED057AF4EEC77AF1EE10FA16
:1013880002DB327F22710EE017B995F82420F9E7C5
:10139800637905EB431393ED057AF4EEC77AF1EE22
:1013A80010FA04DB337F637101372036B0E7012F71
:1013B800FAD195F84430F6E7E37D434515D09AED28
:1013C800048A18EE100A4CF08BFC32463B464CF06F
:1013D80065FF10B9BBF1000F0CD19AF824302279BF
:1013E8009A4202D062799A4211D108F101080AF1B1
:1013F800200A98E7637D05EB4313D3ED047AB4EE36
:10140800E78AF1EE10FAE8DA4FF0010BEDE76375C1
:10141800FAE700BFAFF30080666666666666EE3F71
:101428007A4808089C480808AB48080800000000EB
:101438002DE9F047D0F8048000EB411393F82450CD
:1014480098F817300446AB422DD098F81530AB42C7
:1014580029D000EB411ADAF810004FEA41194CF094
:101468003FFC13A3D3E9002306460F464CF00CFFBC
:1014780010B99AF91D00A0B198F80430AB4212D007
:1014880098F80530AB420ED009A3D3E900233046C3
:1014980039464CF00DFF18B14C44637F013B63772C
:1014A8000120BDE8F0870020FBE700BFAFF3008014
:1014B800666666666666EE3F2DE9F34704460E46A5
:1014C800456827210820804A58F038FE20463146D2
:1014D800FFF7FEFE284665F08AFC002800F0BA8077
:1014E800204665F097FC061EC0F2B48094F8E831F7
:1014F8009E4280F2AF8004EB46173346272108202E
:10150800724A58F01BFE2721082097F82530704AA8
:1015180058F014FE012295F804C085F8242004EB45
:101528004C13386A196A884297F8250002D8397F1F
:10153800322977D9012284F8EC21002284F8EA01C3
:1015480084F8EB21A97D297093F8251084F8F0110F
:1015580093F8263084F8F12184F8F231697D85F812
:1015680001C004EB411393F82500012684F8F60125
:1015780093F8263084F8F831002384F8F731A970FD
:1015880085F82520A04605F1FF3904F1120A19F85B
:10159800013F5F1C002E00F0898004EB431318699B
:1015A8004CF09EFB02460B46CDE9002342A3D3E94B
:1015B80000234CF07DFE40B941A3D3E90023DDE9C7
:1015C80000014CF057FE002870D004EB4717BB7998
:1015D800042B8EBF02230133C3F3460388F8EC3192
:1015E80008F10608C245D2D1EA7D04F5F57004EB8E
:1015F800421393F8253084F8FC31002384F8FD3138
:10160800EA7085F8243094F8F22194F8EC31134408
:1016180094F8F821C3F113039B1A84F8FE3102B041
:10162800BDE8F08793F82570697D84F8EA7193F82E
:10163800263084F8EC31002384F8EB3185F800C0BB
:1016480084F8F13184F8F00184F8F22104EB4113B5
:101658006E7088E700262A7904EB421393F8251068
:1016680084F8EA1193F8263084F8EB6184F8EC31B9
:101678002A706A7904EB421393F8251084F8F01164
:1016880093F8263084F8F16184F8F2316A706A7D43
:1016980004EB421393F8251084F8F61193F82630DA
:1016A80084F8F76184F8F831AA706BE704EB471700
:1016B800BB7993E7AFF30080666666666666EE3FC1
:1016C8009A9999999999B93FCF480808DD48080827
:1016D800ED480808000000002DE9F8432DED028BC5
:1016E80087680546384616460C464CF0F9FA2EA38C
:1016F800D3E90023804689464CF0DAFD00283DD125
:101708002BA3D3E90023404649464CF0B3FDC0BBA8
:10171800F7EE007A07EE107AAB7F87EE878A07EE3E
:10172800903AB8EEE77AB4EEC87AF1EE10FA01D53D
:10173800B8EE678A6B7F607F0122834224D0002144
:1017480041F04CFE012204463146687F41F046FED6
:10175800044404F2D5702860D8B107EE900AF8EE78
:10176800677A9FED0D7A67EE887A87EE270ABDECD7
:10177800028B10EE103AEB60BDE8F8839FED078A04
:10178800D8E79FED078AD5E73146184641F026FE8F
:10179800E1E79FED040AEAE700007A44E4388E3F67
:1017A80000401C4600000000CDCCCCCCCCCCEC3F9B
:1017B8009A9999999999B93F2DE9F04F2DED028B96
:1017C80090F8E83105460E46934689B0002B00F0A4
:1017D800238127210820964A58F0B0FC00226C6823
:1017E800A1690131A16195F8E80190423DD8D4E999
:1017F80007230A2779436427B1FBF7F1C2EB5303A8
:101808000B4407EE903A430006EE903AF8EE677AFA
:10181800F8EEE66AF4EEE76AF1EE10FA0BD507EE99
:10182800102A77EEE67AB8EE477A77EE277AFCEE5A
:10183800E77AC4ED077A0027B846BB451DD8B8F14A
:10184800010F00F0E680B8F1130F40F2B9800023D1
:10185800A3612721082095F80332764A09B0BDEC28
:10186800028BBDE8F04F58F069BCA37D013205EB4F
:1018780043131F7F01371F77B7E7B6F8029096F832
:1018880004A0B9F1000F41D050464CF017FACDE949
:10189800060148464CF012FA02460B46DDE90601FD
:1018A8004CF0A0FB02460B46002063494CF0B8F808
:1018B8004CF050FD08EE100A337818EE100A069323
:1018C80004954CF00DFA069BCDE902015B4A2721ED
:1018D8000820CDE9009A58F031FC7288337995F8E0
:1018E8000312D31A0B4485F8033294F82430C3B199
:1018F80094F82530BB4214D15AB922622721082016
:101908004F4A58F01BFC0137063696E7B7EE008AB7
:10191800D2E7E3692721013308204A4AE36158F0F6
:101928000DFCB6F802A0BAF1000FECD00023E25D7E
:1019380005EB4211C8680B770130C86096F804C0FF
:101948000B8B4FEA421963449BB20B831BB191F88E
:10195800253085F81432F7EE007A05EB0902538B2F
:1019680001285344A3EB0C0377EEC87A53830DD9AF
:10197800B2EE0E7AD2ED046A27EE877ADFED327A7C
:10198800A6EEA77ADFED316AC7EE267AA944C9ED3B
:10199800047A17EE900A4CF0A3F923A3D3E90023A5
:1019A8004CF068FC30B1FF2389F81D30C2441FFA9F
:1019B8008AF8A8E799F91D300133F7D10423F3E732
:1019C800B8F1020FD4ED0B7AB1EE047A15D977EE9F
:1019D800877AB3EE047AF4EE477AF1EE10FA77FEDE
:1019E800277A42F21073A269C4ED0B7A9A4282BF39
:1019F8000023C4E9063323622BE7F2EE046A77EE8C
:101A0800E67AF4EE477AF1EE10FA48BFF0EE477A3C
:101A1800E7E7DFED0F7AE4E709B0BDEC028BBDE83C
:101A2800F08F00BFAFF30080666666666666EE3FBD
:101A380032490808984908080000F03F4849080852
:101A480079490808884908080000AA420000C842E5
:101A580000000000000000002DE9F84F2DED028B7A
:101A68000546884600274FF020094FF0080B4468C8
:101A780000F10806E37D23716371637595F8E8A1A9
:101A8800BA450CDC0FF2D009D9E9008900262F46A7
:101A9800B346B24532D8BDEC028BBDE8F88FE17D84
:101AA800424619FB01B130462944FFF715FE237958
:101AB800D6ED037A05EB431292ED057AF4EEC77A78
:101AC800F1EE10FA02DB327F22710EE017B995F8B9
:101AD8002420F9E7637905EB431393ED057AF4EED7
:101AE800C77AF1EE10FA04DB337F637101372036D1
:101AF800C4E7012FFAD195F84430F6E7E37DB34205
:101B080015D097ED048A18EE100A4CF0E9F8424611
:101B18004B464CF0C3FB10B9BBF1000F0AD197F844
:101B2800243022799A4202D062799A420FD1013642
:101B38002037AEE7637D05EB4313D3ED047AB4EEAB
:101B4800E78AF1EE10FAEADA4FF0010BEFE7637576
:101B5800FAE700BFAFF30080666666666666EE3F2A
:101B68002DE9F047456890F8E821AB690446B3EBE6
:101B7800420F2ED900EB411393F82480EB7D4345A7
:101B88002AD06B7D434527D000EB411ADAF81000C4
:101B98004FEA41194CF0A4F811A3D3E900230646F3
:101BA8000F464CF071FB10B99AF91D0090B12B79D2
:101BB800434511D06B7943450ED009A3D3E90023DF
:101BC800304639464CF074FB18B14C44637F013BF6
:101BD80063770120BDE8F0870020FBE7AFF30080C2
:101BE800666666666666EE3F0348044B834202D02B
:101BF800034B03B118477047F0CB0020F0CB00200F
:101C080000000000064B0749C91A891048BF013176
:101C1800491003D0044B0BB101481847704700BF67
:101C2800F0CB0020F0CB00200000000010B5064CDF
:101C3800237843B9FFF7D8FF044B13B10448AFF337
:101C480000800123237010BD8A5800200000000086
:101C58002461080808B5054B1BB105490548AFF3D1
:101C68000080BDE80840FFF7CDBF00BF00000000BE
:101C7800F81E002024610808A3F5803A704700BFC9
:101C8800174B002B08BF134B9D46FFF7F5FF0021AC
:101C98008B460F461348144A121A66F0FCF80E4B8E
:101CA800002B00D098470D4B002B00D09847002000
:101CB800002104000D000D48002802D00C48AFF3A5
:101CC80000804DF05DFA200029004EF0BBF84CF082
:101CD8009DFE00BF0000080000000000000000009A
:101CE8000010002000100020D0B6002000000000E6
:101CF8000000000008B502F01FFC0022084BC3E9F1
:101D08000001084BC3E90001074B08491A8000226B
:101D18000023C1E900230649C1E9002308BD00BF2B
:101D280078100020701000205458002068100020FF
:101D3800601000202DE9F0439BB000AF002304465B
:101D4800F81CC7E9013358F081FB18B181B2184873
:101D580017F0EEFE6A46FB78F81CA2EBC3039D461B
:101D68006946E84658F087FB18B181B2114817F068
:101D7800DFFE0026FB78F5B2AB4210D908EBC509A7
:101D8800484607F10C0158F08FFBFB6A0136002B1F
:101D9800F0D158F83500D9F804103B1D03C33B1D9A
:101DA80003CB206020466C376160BD46BDE8F083F8
:101DB80068AC0608A1AC060813B56846FFF7BAFF79
:101DC800064C009B06492360019B06486360E37943
:101DD800A27902B0BDE8104017F0BEBE3B610020FA
:101DE800D5AC0608FC69002030B597B010A858F0AB
:101DF800A3FB4EF020F811AD02461749284617F00C
:101E0800ABFEFFF7D9FF154BBDF84020D3E90A0117
:101E1800CDE90E01D3E90801CDE90C01D3E90601AA
:101E2800CDE90A01D3E90401CDE90801D3E90201AA
:101E38000B4B0C4C01930C4BCDE90601CDE9032269
:101E480000934FF480612046084B094A029517F029
:101E580097FE204617B030BD608F0708001000209D
:101E6800FC6900204B65002079AD0608046A002053
:101E7800ECAC06082DE9F04FA9B080464DF0DBFF29
:101E8800654C0FAF02466549384617F065FEFFF707
:101E980093FF2378052B65D102F04EFB604ADFF8EB
:101EA800B0B1D2E90045041B61EB0505294620467F
:101EB80002F01CFB5949024619A817F04DFEDBE950
:101EC8000001201845EB010102F010FB554E0DF101
:101ED800780902465149484617F03EFED6E9000106
:101EE80002F004FB0DF18C0A02464C49504617F0EB
:101EF80033FEDBE90032E41845EB020520462946AB
:101F0800CDE90A9A4BF00EFF0022474B4BF040FFF9
:101F180082468B46D6E90001201845EB01014BF0BB
:101F280001FF0B460246594650464CF05BF8CDE996
:101F380008013E4B1B8806933D4B059319ABCDE931
:101F480003733C4B4FF4806102933B4B3B4A019334
:101F58003B4B3C480093434617F012FE394829B0E2
:101F6800BDE8F08F02F0E8FA374ADFF8E490D2E9EA
:101F78000056451B61EB06062278344914A817F071
:101F8800EBFD3146284602F0B1FA2449024619A869
:101F980017F0E2FDD9E9000102F0A8FADFF884A001
:101FA8000DF1780B02461D49584617F0D5FDDAE9C0
:101FB8000001281846EB010102F098FA23AB02460B
:101FC8001649184617F0C8FDD9E9004923AB204641
:101FD8004946CDE90AB34BF0A5FE0022124B4BF05F
:101FE800D7FECDE90C01DAE90031E41849EB01012B
:101FF800601946EB01014BF095FE0B460246DDE900
:102008000C014BF0EFFFCDE90801084B1B88069344
:1020180019AB059314AB92E74B690020608F070852
:10202800781000206010002000005940545800200B
:1020380053AE0608FC69002079AD06087EAD060897
:10204800046A00204B6500207010002056AE060878
:102058006810002037B56049012058F012F905468C
:102068005E495D4804F05AFE5D4C002D00F09C80EE
:102078004FF480615B4A206817F082FD4DF0DBFE6B
:10208800236802465849002057F075F84DF0D3FEF2
:1020980022680146544817F04BFD4FF48061534ABB
:1020A800ABB2206817F06CFD0020216857F063F888
:1020B800206817F03DFD4FF480614D4B4D4A206874
:1020C80017F05EFD4DF0B7FE236802464649002032
:1020D80057F051F84DF0AFFE22680146424817F01C
:1020E80027FD434865F057FF434A014640484EF0F4
:1020F8002AFD4249404804F011FE40F2D5430093BE
:102108004FF480613D4B3E4A206817F039FD4DF091
:1021180092FE236802463449002057F02CF84DF00F
:102128008AFE22680146304817F002FD4FF48061AC
:10213800344B354A206817F023FD4DF07CFE2368A8
:1021480002462949002057F016F84DF074FE22681F
:102158000146254817F0ECFC2A4865F01CFF2B4A7D
:10216800014628484EF0EFFC2949284804F0D6FDDE
:1021780041F2356300934FF48061254B254A20686E
:1021880017F0FEFC4DF057FE236802461649002062
:1021980056F0F1FF4DF04FFE22680146124817F045
:1021A800C7FC284603B030BD4FF480610B4B1A4A78
:1021B800206817F0E5FC4DF03EFE236802460A4908
:1021C800284656F0D8FF4DF036FE226801460648EC
:1021D80017F0AEFC6FE700BF2B6100200361002001
:1021E800C41F00207CFE06086AAE060872AE060808
:1021F800D2AE0608DFAE0608441F0020B3600020F8
:10220800FAAE060821AF06082EAF0608241F0020E4
:102218008B6000204AAF0608AFAE0608F8B5FFF796
:1022280019FF03220221002020F034FC514A411CEE
:102238000346514C106023D14FF480614F4A206807
:1022480017F09EFC4DF0F7FD236802464C4900202C
:1022580056F091FF4DF0EFFD22680146484817F00F
:1022680067FC484A4FF48061206817F089FC2168B0
:10227800002056F080FF206817F05AFC0120F8BDB6
:102288004FF48061404A206817F07AFC4DF0D3FD86
:10229800236802463A49002056F06DFF4DF0CBFD09
:1022A800002501462268394E354817F041FC40F2B6
:1022B800D540356057F04FFF0322B08002212846F1
:1022C80020F0E8FB324E421C0346306016D14FF432
:1022D80080612A4A206817F053FC4DF0ACFD236852
:1022E80002462749284656F046FF4DF0A4FD2268CD
:1022F8000146234817F01CFC264AB3E74FF48061D7
:10230800254A206817F03CFC4DF095FD23680246ED
:102318001B49284656F02FFF4DF08DFD1F4F0146F3
:10232800226817481E4C17F003FC41F235602560FF
:1023380057F011FF33683E46A08046F8043B0FCCA7
:102348000FC694E80F0086E80F0041F20303FB84F0
:102358003223BB6242F22A3312484FF48C71BB8598
:10236800B8634EF005FD7D63F88587F8245028464C
:102378003D6484E7141F0020C41F00207CFE06086B
:102388006AAE060871AF0608A7AF0608381F002016
:10239800101F0020D7AF06080EB006088CB8002022
:1023A800181F00203EB0060873B53C4D4FF48C71E1
:1023B800E8634EF0DDFC288605F124004EF081FA32
:1023C80006464EF067FA0446E8B9354D00964FF4D4
:1023D8004B734FF48061334A286817F0D1FB4DF0F6
:1023E8002AFD2B6802463049204656F0C4FE4DF0BF
:1023F80022FD2A6801462C4817F09AFB40F22E3538
:10240800284602B070BD05F124014EF05CFA0028A0
:102418001CDA234D40F231334FF48061234A286897
:1024280017F0AEFB4DF007FD1F4902462B68002050
:1024380056F0A1FE4DF0FFFC2A6801461A4817F035
:1024480077FB002520464EF031FAD9E72023019387
:10245800174B3246009321460023286820F08AFB58
:102468000130EED12B680E4E00934FF4806140F29C
:102478003A33104A306817F083FB4DF0DCFC3368C0
:1024880002460949002056F076FE4DF0D4FC326829
:102498000146054817F04CFB3125D3E78CB80020DE
:1024A800C41F002051B006086AAE060891B006089D
:1024B800181F0020CBB006082DE9F04385B005466B
:1024C8001C469DF830609DF83470002A00F08F801B
:1024D800002978D04DF0AFFC0146714817F028FB71
:1024E800284617F025FB002C40F09A800124002E86
:1024F8003CD02B464FF480616A4A6B4817F040FB8A
:1025080020230193694BDFF8D091009386B2002312
:1025180032466549D9F8000020F02CFB013040F024
:10252800838040F2D5430293614B03960193D9F817
:102538000030DFF88C8100934FF4806140F2613302
:102548005C4AD8F8000017F01BFB4DF074FC5A49A0
:102558000246D8F80030002056F00DFE4DF06BFC16
:10256800D8F800200146544817F0E2FA3FB32B464A
:102578004FF480614B4A514817F002FB83B2B3F520
:102588008C7F54D94FF48C734D4D80B201930090D9
:1025980040F26A334FF480614A4A286817F0F0FA2B
:1025A8004DF049FC444902462B68002056F0E3FDF3
:1025B8004DF041FC2A6801463F4817F0B9FA204619
:1025C80005B0BDE8F08317F0B3FA002C8ED00124D3
:1025D800DFF8EC802A464FF48061D8F8000017F045
:1025E800CFFAD8F80010002056F0C5FD16E0002BF1
:1025F8003FF47DAFB1B11446DFF8C4802A464FF4EA
:102608008061D8F8000017F0BBFA4DF014FCD8F838
:10261800003002462849002056F0ADFD013466E737
:102628000124E9E70C46D3E70134E4B29EE72348E6
:10263800FFF7BAFE064610B90134E4B2BFE7204DF1
:102648004FF48061204A286817F09AFA4DF0F3FB9E
:102658002B6802461849002056F08DFD4DF0EBFB23
:102668002A680146144817F063FA41F23563029369
:10267800164BB6B20193164B03961B68154A009386
:102688004FF4806140F26E33286817F079FA2968B0
:10269800002056F070FD286817F04AFA8FE700BF4F
:1026A800F9B00608608F07088B5C0020381F0020EF
:1026B800B3600020FFB006086AAE06088B580020F9
:1026C800C41F00205DB106087CFE06088B60002050
:1026D800101F0020C9B10608141F00202DE9F74378
:1026E80001F08CFEC64DC74817F022FAC64EC74AFD
:1026F800C749C848C84C17F02FFA64212846C74B69
:10270800C34A17F03DFA019500964FF48061C14B1A
:10271800C34A206817F034FA4DF08DFB236802464F
:10272800C049002056F027FD4DF085FB2268014680
:10273800BC4817F0FDF9BC4B3221BC4A0093BC4899
:10274800BC4B17F01DFA4FF48061B24BBA4A2068AF
:1027580017F016FA4DF06FFB23680246B1490020C6
:1027680056F009FD4DF067FB22680146AD4817F0A9
:10277800DFF933464FF48061AF4A206817F000FA5A
:102788004DF059FB23680246A649002056F0F3FC99
:102798004DF051FB22680146A24817F0C9F92B46B3
:1027A8004FF48061A44A206817F0EAF94DF043FB22
:1027B800236802469B49002056F0DDFC4DF03BFBA8
:1027C80022680146974817F0B3F94FF48061984B97
:1027D800994A206817F0D4F94DF02DFB236802467A
:1027E8009049002056F0C7FC4DF025FB22680146B1
:1027F8008C4817F09DF90121042001F0B9FB012252
:102808002220114601F0DCFB01220B20114601F0C9
:10281800D7FB01222520114601F0D2FB01221D2001
:10282800114601F0CDFB854B4FF48061784A84480E
:1028380017F0A6F94FF48061824A206817F0A0F9D2
:102848004DF0F9FA236802467649002056F093FCC9
:102858004DF0F1FA22680146724817F069F94FF411
:102868008061794B794A206817F08AF94DF0E3FACC
:10287800236802466B49002056F07DFC4DF0DBFAD8
:1028880022680146674817F053F94FF480616E4B90
:102898006F4A206817F074F94DF0CDFA23680246A4
:1028A8006049002056F067FC4DF0C5FA694D0146B5
:1028B80022685C4817F03CF9284657F0AFFDEB79E1
:1028C800AA796549654817F047F94FF48061634B69
:1028D800634A206817F054F94DF0ADFA23680246B0
:1028E8005049002056F047FC4DF0A5FA22680146F1
:1028F8004C4817F01DF95B495B4817F02DF94FF468
:102908008061594B594A206817F03AF94DF093FA0B
:10291800236802464349002056F02DFC4DF08BFAFF
:10292800226801463F4817F003F951498B2004F00B
:1029380075F901F001FE4F4B4F4FC3E9000157F005
:102948005CFD4FF480614D4A206817F019F94DF08D
:1029580072FA236802463349002056F00CFC4DF009
:102968006AFA226801462F4817F0E2F84DF0D1FACA
:102978000121042001F0FCFA01222220114601F075
:102988001FFB01220B20114601F01AFB0122252012
:10299800114601F015FB0122012411461D2001F00A
:1029A8000FFBFFF73BFC01F06DFB01F0EFFD344935
:1029B800344800F05DFB2148FFF716FA234622460B
:1029C8002146CDE90044FFF777FDDFF8C0803B786A
:1029D800052B77D1D8F800004EF0FFF94FF0010928
:1029E80001F092FC01F0A4FE01F0A6FD264B06467C
:1029F8001A8800230D464BF05BFE1A4348E000BFDF
:102A0800986900207CFE06085BB2060879AD0608C6
:102A1800608F07080C6A0020C41F002033B2060824
:102A280051B206086AAE060885B2060870B20608F2
:102A38006669002064B20608CEAE060844FA0608A5
:102A48004B6100208EB20608A5B20608B5B206088A
:102A5800CDB2060843610020D5AC0608046A002000
:102A6800E5B20608F4B206084D6900200CB3060862
:102A7800D92A0008801000204B6900201CB30608E2
:102A8800DB6000200361002050BF0020B0CE0608A4
:102A98000BD14CB10D48FFF7EDF90123CDE90099B1
:102AA8001A461946FFF708FD0024304629463C22FD
:102AB80000234BF0FDFD013A1A4308BF01244DF0F5
:102AC80036FA84E74FF000098EE700BF44FA06089B
:102AD8002DE9FF478268CC4DD2B2052A2A7000F250
:102AE800C981CA4E33889A4200F0C481C84C00920A
:102AF8004FF48061C74A206817F042F84DF09BF9FF
:102B080023680246C449002056F035FB4DF093F97E
:102B180022680146C04817F00BF82F787B1E042B5B
:102B280035D801F009FD02460B46BC4901EBC70741
:102B3800C7E900232B785F1E51F8332001EBC70C3F
:102B480001EBC30051F837104068DCF80470521AE2
:102B580060EB0701B24800EBC30740F83320796007
:102B6800CDE900214FF48061AE4A206817F008F8DB
:102B78004DF061F9A84902462368002056F0FBFA97
:102B88004DF059F922680146A34816F0D1FF2B7879
:102B9800052B40F08F80A14AA349D2E90A3C0A8854
:102BA800DFF8AC92013292B2012AC9E9003C2068F0
:102BB8009E4F0A8040F06181CDE9003C4FF480616E
:102BC8009B4A16F0DDFF4DF036F92368024692491C
:102BD800002056F0D0FA4DF02EF9226801468E48B2
:102BE80016F0A6FF00231A46DFF87482C7E9003200
:102BF800404665F0D0F98F4B87B295F80090188061
:102C08004DF019F9C7F580614B468B4A009008EBE7
:102C1800070016F0B5FF276895F800804DF00BF90E
:102C280043464FF48061844A0090384616F0A8FF66
:102C38004DF001F9236802467749002056F09BFAC7
:102C48004DF0F9F822680146734816F071FF02A8A2
:102C5800FFF770F8794F029B79493B60039B7948ED
:102C68007B60FB79BA7916F077FF774B1B684BB11D
:102C78007648FFF7B9F801231A461946CDE900331B
:102C8800FFF71AFC0121042001F072F90122222029
:102C9800114601F095F901220B20114601F090F937
:102CA80001222520114601F08BF901221D20114631
:102CB80001F086F93388052B40F0DA80574F4FF042
:102CC8000009BA46B84601F037FC2A7809F101092B
:102CD8004A45EAE80201F6DA0020DFF844C13B463B
:102CE800B968D3F80CE00130D3E90093B1EB0901DE
:102CF8006EEB03034CF8081F824207F10807CCF873
:102D08000430ECDA08EBC20158F83230504F4A6808
:102D1800DFF85081D7E90001C8E900321B1A62EBDD
:102D28000102CDE900324FF480614A4A206816F06A
:102D380027FF4DF080F8236802463749002056F0F7
:102D48001AFA4DF078F822680146334816F0F0FE7A
:102D5800D8E90032DFF810C1DFF80481DCE90001AE
:102D68001B1842EB0102D7E900105B1A62EB000264
:102D78004046CCE9003265F00EF92E4B87B295F843
:102D8800009018804DF057F8C7F580614B46324ADD
:102D9800009008EB070016F0F3FE276895F800800E
:102DA8004DF049F843464FF480612B4A009038466D
:102DB80016F0E6FE4DF03FF823680246164900205B
:102DC80056F0D9F94DF037F8226801240146124827
:102DD80016F0AEFE214B214604201C7001F0C8F805
:102DE80022462146222001F0EBF8224621460B20FC
:102DF80001F0E6F822462146252001F0E1F82246B6
:102E080021461D2032E000BF4B69002050580020A9
:102E1800C41F002036B306086AAE0608301000202A
:102E2800001000204BB30608545800206010002002
:102E380074B3060852580020B1B306083B6100205D
:102E4800D5AC0608FC690020141F002044FA0608C7
:102E580078100020BCB30608D9B306084C690020D6
:102E68004B610020701000206810002001F0A8F8C5
:102E78002B78338004B0BDE8F087DFF85C80D8E9B0
:102E880000125B1A6CEB0202CDE900324FF480614C
:102E98000F4A16F075FE4CF0CEFF236802460D4926
:102EA800002056F068F94CF0C6FF22680146094830
:102EB80016F03EFED7E90001D9E900321B1842EBB3
:102EC8000102D8E900105B1A62EB00028CE600BF31
:102ED80095B306086AAE06087010002084B0F0B5F5
:102EE80091B016AC84E80F0001F026FB01F0FEFA61
:102EF8002F4D02462821284616F042FE01F01CFB01
:102F08002C4A2D4ED2E90032C01A61EB020101F0C1
:102F1800EDFA28210246304616F032FE274B284F9C
:102F280018684DF08BFF274B0446387018684DF031
:102F380085FF031E3870244F18BF0123221E18BFB7
:102F480001223846214916F007FE9DF89F30204C93
:102F58000C939DF89C304FF48061AE3B0B939DF829
:102F68009D302046AE3B0A93BDF89630194A099326
:102F7800BDF89430CDE90E670893239B0D95079310
:102F8800229B0693219B0593209B04931F9B0393ED
:102F98001E9B02939DF8B43001932E9B00930E4B19
:102FA80016F0EEFD204611B0BDE8F04004B07047C1
:102FB8003D6A002078100020156A002010CF06080E
:102FC800146A0020F8CE0608656A0020E4B30608F3
:102FD8004B650020ECB30608046A00202DE9F04197
:102FE800AEB016AF0446F81C57F030FA18B181B2EB
:102FF8001A4816F09DFDFB78A3422DD96A46A2EB2C
:10300800C3039D4616AD2946F81C57F034FA18B18B
:1030180081B2134816F08CFDDFF850803E1D314612
:1030280005EBC40005EBC40557F03EFAEB79AA7925
:103038000C49404616F090FD492207F114016846F4
:10304800CDE9134864F09AFF96E80F00FFF746FFB2
:103058006037BD46BDE8F0810348F9E768AC06086B
:10306800A1AC0608D5AC060844FA0608856A002013
:1030780070B50D4604461A4E304616F059FD1948EB
:1030880016F056FD41F235622946174816F050FDF4
:10309800164816F04DFD2146154816F049FD15480D
:1030A80016F046FD2146144816F042FD03F0B8F923
:1030B800124816F03DFD124816F03AFD114816F078
:1030C80037FD114816F034FD104816F031FD104850
:1030D80016F02EFD3046BDE8704016F029BD00BF41
:1030E8007CFE060809B506083DB506085EB5060863
:1030F8006FB50608AFB50608C3B506081BB60608BF
:1031080071B60608C1B60608FDB6060857B7060820
:10311800B2B7060830B587B004460C4B0C4D049383
:103128000C4B4FF47A7103930B4B284602930B4BCD
:103138000B4A01930B4B00930B4B16F021FD2146D4
:10314800284607B0BDE830404CF060BE66690020F4
:103158008A6A0020986900204D6900205BB2060841
:10316800F0B706080C6A0020046A002070B59AB00F
:1031780004460DF1170057F069F901F0DDF901F087
:10318800B5F92821024606A816F0FAFC01F0D4F990
:10319800104A10AED2E90032C01A61EB020101F008
:1031A800A5F928210246304616F0EAFC9DF81730AA
:1031B800094D0293094B0A4ACDE900634FF47A712D
:1031C80006AB284616F0DCFC214628464CF01EFECD
:1031D8001AB070BD781000208A6A0020FC690020AF
:1031E80068B8060838B50446064D4FF47A71284683
:1031F800054B064A16F0C4FC21462846BDE838406F
:103208004CF004BE8A6A0020046A0020608F070818
:1032180038B50446064D4FF47A712846054B064AE0
:1032280016F0AEFC21462846BDE838404CF0EEBD0D
:103238008A6A00200C6A0020608F070838B50446A7
:10324800064D4FF47A712846054B064A16F098FC4D
:1032580021462846BDE838404CF0D8BD8A6A00208F
:103268005BB20608608F070838B50446064D4FF470
:103278007A712846054B064A16F082FC21462846F4
:10328800BDE838404CF0C2BD8A6A00204D69002074
:10329800608F070810B59AB08389044653B300219C
:1032A8008269D1548069154901AA4BF003FDE0B148
:1032B800134901A864F050FE40B957F003F857F0DD
:1032C8009CF84CF026FE00201AB010BD0D4901A84C
:1032D80064F042FE10B956F0F5FFF2E70A4A01AB76
:1032E8004FF47A71094816F04BFC214607484CF018
:1032F8008DFDE9E7064B014AF2E700BF608F07083A
:10330800BFB80608C9B80608D3B806088A6A0020F4
:103318009869002038B50446064D4FF47A7128465E
:10332800054B064A16F02CFC21462846BDE83840D5
:103338004CF06CBD8A6A002066690020608F07081F
:1033480038B5044601F0F8F801F0D0F8064D034608
:103358004FF47A712846054A16F012FC2146284691
:10336800BDE838404CF052BD8A6A0020608F0708DB
:1033780038B50446074DFEF71FFD4FF47A7128460D
:10338800054B064A16F0FCFB21462846BDE83840A6
:103398004CF03CBD8A6A0020FC690020608F070859
:1033A80013B50023019383890446B3B10F4980699B
:1033B80001AA4BF07FFC80B19DF80400FFF70EFED8
:1033C80003460B4A4FF47A710A4816F0D9FB214696
:1033D80008484CF01BFD02B010BD0DF1030057F07A
:1033E80035F89DF80330044AECE700BF4CD90708CC
:1033F800608F07088A6A0020E8B8060830B58BB0E5
:103408000446114B114DD3E90A01CDE90801D3E96E
:103418000801CDE90601D3E90601CDE90401D3E9A4
:103428000401CDE902014FF47A71D3E90223284659
:10343800CDE90023064A16F0A3FB214628460BB027
:10344800BDE830404CF0E2BC001000208A6A002041
:10345800FBB8060838B50446064D4FF47A7128467D
:10346800054B064A16F08CFB21462846BDE8384035
:103478004CF0CCBC8A6A00204B610020608F0708A2
:1034880037B50022838904460C4D01924BB18169FE
:10349800CA5480690A4901AA4BF00CFC08B1019B87
:1034A8002B802B88074A4FF47A71074816F068FB7F
:1034B800214605484CF0AAFC03B030BD50BF00209F
:1034C8004CD907084C1208088A6A002013B5002254
:1034D80083890446019273B18169CA5480690C4991
:1034E80001AA4BF0E7FB30B19DF80400094B01211C
:1034F800187000F03DFD019B074A4FF47A710748A8
:1035080016F03EFB214605484CF080FC02B010BD89
:103518004CD9070848C000204C1208088A6A0020C5
:1035280010B50446064B18684DF069FC054816F0BE
:10353800FFFA2146BDE8104003484CF067BC00BFC5
:1035480010CF060816B9060823B9060810B50446B0
:10355800064B18684DF041FC054816F0E9FA21467B
:10356800BDE8104003484CF051BC00BF10CF06081E
:103578003DB906084BB9060810B50446064B18684D
:103588004DF03DFC054816F0D3FA2146BDE8104041
:1035980003484CF03BBC00BFF8CE060866B90608E5
:1035A80073B9060810B50446064B18684DF015FCAB
:1035B800054816F0BDFA2146BDE8104003484CF016
:1035C80025BC00BFF8CE06088DB906089BB90608C9
:1035D80010B50446064B18684DF011FC054816F066
:1035E800A7FA2146BDE8104003484CF00FBC00BFC5
:1035F800E0CE0608B6B90608C3B9060810B50446F1
:10360800064B18684DF0E9FB054816F091FA21467B
:10361800BDE8104003484CF0F9BB00BFE0CE0608F7
:10362800DDB90608EBB9060810B50446064B18685C
:103638004DF0E5FB054816F07BFA2146BDE8104041
:1036480003484CF0E3BB00BFC8CE060806BA06081C
:1036580013BA060810B50446064B18684DF0BDFBB2
:10366800054816F065FA2146BDE8104003484CF0BD
:10367800CDBB00BFC8CE06082DBA06083BBA06085F
:1036880008B582890AB9002008BD0549806964F037
:1036980017FC0028F7D1FEF72DFB0120F4E700BF47
:1036A80056BA060838B50446084D094B4FF47A71E6
:1036B8001B882846074A16F063FA2046FFF7E0FF02
:1036C80021462846BDE838404CF0A0BB8A6A002055
:1036D800545800204CD9070838B5044600F02CFF90
:1036E8000C4A0D4DD2E90032C01A61EB020100F01C
:1036F800FDFE4FF47A710346084A284616F040FA50
:103708002046FFF7BDFF21462846BDE838404CF06B
:103718007DBB00BF781000208A6A0020608F0708F0
:1037280070B5044600F008FF0F4E104AD6E900565F
:10373800D2E900325B1B62EB0602181842EB01016A
:1037480000F0D4FE0A4D03464FF47A712846094A20
:1037580016F016FA2046FFF793FF21462846BDE8E3
:1037680070404CF053BB00BF781000206810002058
:103778008A6A0020608F070838B50B4B0446D3E9E6
:10378800000100F0B3FE094D03464FF47A71284654
:10379800074A16F0F5F92046FFF772FF214628463A
:1037A800BDE838404CF032BB601000208A6A002027
:1037B800608F07082DE9F743064600F0BDFEDFF8E5
:1037C8009890DFF89880D9E90032D8E900545B1B5B
:1037D80062EB0402181842EB01014AF0A3FA002236
:1037E8001A4B4AF0D5FA04460D4600F0A5FED9E971
:1037F8000032DFF86CE0164FDEE900CE13EB0C0365
:1038080042EB0E02D8E900CEB3EB0C0362EB0E02DA
:10381800181842EB01014AF085FA0B460246294680
:1038280020464AF0DFFB0B4ACDE900014FF47A71DC
:10383800384616F0A5F93046FFF722FF31463846DC
:1038480003B0BDE8F0434CF0E1BA00BF00005940B6
:103858008A6A00205CBA06086810002078100020E8
:10386800601000202DE9F04FA7B0834600F064FEF9
:103878003F4D404CD5E90032D4E900679B1B62EB11
:103888000702181842EB010100F030FE0DF148095B
:10389800394F02462821484616F072F9D7E9000147
:1038A80000F024FE0DF1700A02462821504616F059
:1038B80067F900F041FED5E900322668DFF8CC80D0
:1038C8009B1B666862EB0602181842EB01014AF07E
:1038D80029FA0022294B4AF05BFACDE9100100F0E1
:1038E8002BFED5E90032D7E900575B1942EB0702F6
:1038F800D4E900545B1B62EB0402181842EB010187
:103908004AF010FA02460B46DDE910014AF06AFB5C
:103918004AF020FD4AF0E4F9CDE90B9ACDE90E0111
:10392800174B1B880A93174BD3E90A01CDE9080105
:10393800D3E90801CDE90601D3E90601CDE904017F
:10394800D3E90401CDE902014FF47A71D3E90223E6
:103958004046CDE900230C4A16F012F95846FFF705
:103968008FFE594640464CF051FA27B0BDE8F08F1B
:1039780068100020781000206010002000005940D6
:10398800545800200010002062BA06088A6A0020F5
:103998002DE9F04389B001261422002103A864F020
:1039A8007AFA984B984D994C0093994B6846019533
:1039B800029404938DF80C6002F0E8FC30B14FF4E7
:1039C8004571944B944A95484BF002F8944BDFF8B4
:1039D800E4920093934B6846CDE9019404938DF8E3
:1039E8000C6002F0D3FC20B14FF44771894B8A4A2E
:1039F800E9E78D4B6846CDE900398C4B0294049376
:103A08008DF80C6002F0C2FC20B14FF44971814B73
:103A1800814AD8E7864B68460093864B8DF80C6040
:103A2800CDE90134844B049302F0B0FC20B14FF48B
:103A38004B71784B784AC6E7804B814F0093814B96
:103A48006846CDE9017404938DF80C6002F09EFC81
:103A580020B14FF44D716F4B6F4AB4E77A4B68460B
:103A6800CDE90037794B029404938DF80C6002F08D
:103A78008DFC20B14FF44F71664B674AA3E7744B36
:103A88006846CDE90037734B029404938DF80C60B7
:103A980002F07CFC20B14FF451715E4B5E4A92E714
:103AA8006D4B6846CDE900356C4B029404938DF854
:103AB8000C6002F06BFC20B14FF45371554B564A21
:103AC80081E7674BDFF8F0810093664B6846CDE9E4
:103AD800018404938DF80C6002F058FC20B14FF477
:103AE80055714C4B4C4A6EE75F4B6846CDE900393F
:103AF8005E4B029404938DF80C6002F047FC20B1F1
:103B08004FF45771434B444A5DE70126584B6846CA
:103B1800CDE90035574B029404938DF80C6002F000
:103B280035FC20B14FF459713A4B3B4A4BE7524BA5
:103B38006846CDE90038514B029404938DF80C6027
:103B480002F024FC20B140F26D31324B324A3AE7A0
:103B58004B4B684600934B4B8DF80C60CDE9013414
:103B6800494B049302F012FC20B140F27531294B05
:103B7800294A28E7454B6846CDE90038444B02946A
:103B880004938DF80C6002F001FC20B140F27D3105
:103B9800204B214A17E73F4B684600933E4B8DF870
:103BA8000C60CDE901343D4B049302F0EFFB20B1EA
:103BB80040F28531174B184A05E7394B6846CDE97D
:103BC8000038384B029404938DF80C6002F0DEFB49
:103BD80020B140F28D310F4B0F4AF4E6324B684664
:103BE8000093324B8DF80C60CDE90134304B0493CF
:103BF80002F0CCFB002861D040F29531054B064A13
:103C0800E1E600BF01BB06080BBB060810BB0608AF
:103C18001D31000815BB0608A3BD060855BB0608DC
:103C280063BB0608ED31000874BB060819320008AA
:103C38007FBB06088BBB0608453200088FBB060809
:103C48002647080871320008A1BB06089D32000803
:103C5800B3BB06081D330008C1BB06087531000850
:103C6800CDBB060849330008E2BB060879330008D3
:103C7800F1BB0608A933000802BC0608E1360008B3
:103C880014BC060834BC0608053400083ABC06080B
:103C9800813700085DBC060879BC0608AD36000807
:103CA8007DBC0608293700089DBC0608BABC060872
:103CB800BD37000870BB0608DDBB0608744B6846B4
:103CC800CDE90037734B029404938DF80C6002F031
:103CD8005DFB20B140F29E316F4B704A73E6704B2A
:103CE8006846CDE900356F4B029404938DF80C605B
:103CF80002F04CFB20B140F2A931674B674A62E6FB
:103D0800694B6A4C00936A4B68460193694B02946D
:103D180004938DF80C6002F039FB20B140F2E331D6
:103D28005D4B5E4A4FE6644B68460093634BCDE9B2
:103D380001340124624B8DF80C40049302F026FBF9
:103D480020B140F2EB31544B544A3CE65D4B5E4E99
:103D5800CDE900355D4B6846029604938DF80C401A
:103D680002F014FB20B140F2F3314B4B4B4A2AE6E8
:103D7800574B6846CDE90035564B029604938DF8AB
:103D88000C4002F003FB20B140F2FB31424B434AA6
:103D980019E6514B6846CDE90035504B029604931D
:103DA8008DF80C4002F0F2FA20B140F203413A4B90
:103DB8003A4A08E64A4B6846CDE90035494B02962F
:103DC80004938DF80C4002F0E1FA20B140F20B4167
:103DD800314B324AF7E5444B6846CDE90035434B51
:103DE800029604938DF80C4002F0D0FA20B140F20C
:103DF8001341294B294AE6E53D4B6846CDE9003594
:103E08003C4B029604938DF80C4002F0BFFA20B1A7
:103E180040F21B41204B214AD5E5374B6846CDE996
:103E28000035364B029604938DF80C4002F0AEFA3A
:103E380020B140F22441184B184AC4E5304B68467B
:103E4800CDE900352F4B029604938DF80C4002F013
:103E58009DFA20B140F22C410F4B104AB3E52A4B92
:103E680018684CF0BAFF294B18684CF0B6FF284B7D
:103E780018684CF0B2FF274B18684CF0AEFF1E22B2
:103E88001D21254815F054FE1D2009B0BDE8F0831A
:103E9800C0BC06085D34000815BB0608A3BD0608AB
:103EA800C9BC06086D380008DDBC0608F1BC060868
:103EB80030BC060889340008FABC0608C4A2070802
:103EC800D534000810BD06081ABD060829350008B3
:103ED80022BD0608553500082DBD060881350008A5
:103EE80037BD0608AD35000842BD0608D9350008BB
:103EF8004CBD06080536000857BD060831360008CF
:103F080061BD06085D36000810CF0608F8CE060821
:103F1800E0CE0608C8CE06086CBD060800B58BB012
:103F2800FFF736FD2022002102A863F0B4FF0B4BF7
:103F380041F28832019318230021CDE9062308486D
:103F480001AA06F019FF28B95721064B064A074867
:103F58004AF03EFD0BB05DF804FB00BFBBBD060890
:103F6800E5260008C4BD0608E5BD0608D7BD060855
:103F78002DE9F0410746802088464FF009FD0024CE
:103F8800054605EB440305F814400134232C5F7003
:103F9800F7D1294620461EF09BF90646B8F1000FD6
:103FA80005D003463A462146044815F0C1FD284687
:103FB8004FF0F2FD3046BDE8F08100BFEEBD0608C7
:103FC800F7B58DF804008DF8051005460E4601205A
:103FD80001A917461EF07CF904462FB10346324664
:103FE8002946034815F0A4FD204603B0F0BD00BFE4
:103FF80019BE060810B583780446852B0CD1164BDC
:10400800164A174918681EF089FE164B186016489C
:1040180002F0F6FE154B1860A378832B1BD1A0681D
:10402800134B104C18602368984214D140F2CF42C9
:10403800002310491EF046FE80B2002814BF01225A
:1040480000220D4B18800D4B1A7004D1206856F0D1
:1040580097F80B4B186010BDDCB80020E0B80020C2
:10406800601F0020D8B800206C1F00205C1F0020B3
:10407800D4B80020736E002056580020726E0020BD
:10408800D0B800202DE9F341884C4FF48061884A6C
:10409800206815F075FD4BF0CEFE23680246854971
:1040A800002055F068F84BF0C6FE226801468148AA
:1040B80015F03EFD0222012100201EF0EBFC7E4E91
:1040C80003464FF480617D4A3060206815F058FD42
:1040D8004BF0B1FE236802467649002055F04BF8B4
:1040E8004BF0A9FE22680146724815F021FD32689E
:1040F8007349744B7448B2F1FF3F08BF0B467349CC
:1041080015F016FD35686A1C0CD164F093FB4DF070
:10411800BEFC2A4601466E4815F00AFD64F08AFB8B
:104128004DF0BAFCDFF8BC810023424642F80C3B54
:10413800684B03F11007154618685968083303C51A
:10414800BB422A46F7D1644F644D388856F003F8CD
:10415800634BA8F804001A68624930681EF0C6FC70
:104168005749584B0246B0F1FF3F08BF0B4628603D
:104178005D49554815F0DCFCD5F80080B8F1FF3FE3
:104188000CD164F057FB4DF082FC42460146504882
:1041980015F0CEFC64F04EFB4DF07EFC53498520B3
:1041A80002F03CFD4649474B0246B0F1FF3F08BFCD
:1041B8000B4628604E49444815F0BAFCD5F80080F3
:1041C800B8F1FF3F0CD164F035FB4DF060FC42467E
:1041D80001463F4815F0ACFC64F02CFB4DF05CFC4C
:1041E8004249832002F01AFD3549364B0246B0F1A8
:1041F800FF3F08BF0B4628603E49334815F098FC3E
:10420800D5F80080B8F1FF3F0CD164F013FB4DF0F6
:104218003EFC424601462E4815F08AFC64F00AFB33
:104228004DF03AFC0021306855F0C6FF2449254B73
:104238002860B0F1FF3F08BF0B4602462E492248CE
:1042480015F076FC2D686B1C0CD164F0F3FA4DF078
:104258001EFC2A4601461E4815F06AFC64F0EAFA7C
:104268004DF01AFC254802F0CBFD254D3A88286010
:10427800009203464FF48061224A206815F080FCC2
:104288004BF0D9FD236802460A49002054F073FF19
:104298004BF0D1FD22680146064815F049FC286814
:1042A80002B0BDE8F0414CF0DCBC00BFC41F0020E8
:1042B8003EBE06086AAE0608DCB8002061BE0608E5
:1042C8008C5A0808B79607088CBE060878BE0608F8
:1042D8009ABE06081B52070852BF0020D0B800201B
:1042E800E0B80020801F0020A9BE0608FD3F000896
:1042F800BBBE060815BF060869BF06088C1F00204C
:104308005C1F00207DBF06082DE9FF472B4C26685F
:10431800C6B92B4D4FF480612A4A286815F030FC45
:104328004BF089FD2B6802462749304654F023FF9D
:104338004BF081FD2A680146234815F0F9FB2368F4
:1043480001332360214F3B78A3B300252368DFF8AE
:1043580088900133DFF884A02360B9F800301C4846
:104368000AF8035002F04CFDDFF87480144EC8F8C8
:104378000000CDF808A0B9F800304FF48061CDE90D
:104388000003144A2368306815F0FAFB4BF053FD1C
:10439800336802460C49284654F0EDFE4BF04BFDBD
:1043A80032680146084815F0C3FBD8F800004CF005
:1043B80058FC3D7004B0BDE8F08700BF581F0020CE
:1043C800C41F0020B0BF06086AAE0608726E00203F
:1043D8006C1F0020C6BF060856580020736E0020C8
:1043E8005C1F0020044AD2E90031013341F1000189
:1043F800C2E90031704700BF8810002013B5174884
:1044080006F040FC164B186028B96721154B164A70
:1044180016484AF0DDFA00200021154B154A1A60AB
:10442800154BC3E900010BF05DFF044630B10146AE
:10443800124815F07DFB204602B010BD65F0E0FC87
:1044480023460146CDE900440D4A0E4866F07DFB3F
:1044580004460028EFD001460B48EAE758C1060891
:10446800A01F0020EABF060832C1060807C00608D8
:10447800C41F002055730020881000201AC00608A9
:10448800ED430008A41F002045C006082DE9F843A5
:1044980016469946144A002305460C464AF008F980
:1044A800214630803C22284600234AF001F90023A7
:1044B80080460F46164628464FF4616221464AF068
:1044C800F7F8182200234AF0F3F8404689F800204C
:1044D80039463C2200234AF0EBF8089B00201A706A
:1044E800099B1E70BDE8F8838051010010B586B0A5
:1044F8000DF11503019305AB00930DF116020DF1B3
:104508001303FFF7C3FF9DF81530094C02939DF87C
:104518001430122101939DF8133020460093054A68
:10452800BDF8163015F02CFB204606B010BD00BFB4
:10453800437300207CC00608D0B50D4C4FF0FF3106
:10454800206865F09DFE28B14F210A4B0A4A0B48A6
:104558004AF03EFA0A4B2068D3E9006765F0C4FECA
:1045680018B15521074B084AF1E730463946D0BD06
:10457800A01F00208FC0060815C1060807C006083E
:1045880088100020CBC00608F8C00608F7B5544CC0
:104598004FF48061534A206815F0F2FA4BF04BFC57
:1045A800236802465049002054F0E5FD4BF043FCD7
:1045B800226801464C4815F0BBFA03224B490020FB
:1045C8001EF068FA4A4D03464FF48061494A286054
:1045D800206815F0D5FA4BF02EFC236802464249B4
:1045E800002054F0C8FD4BF026FC226801463E48E6
:1045F80015F09EFA2A684049404B4148B2F1FF3F06
:1046080008BF0B463F4915F093FA2E68721C0CD16F
:1046180064F010F94DF03BFA324601463A4815F07D
:1046280087FA64F007F94DF037FA384F00233A4615
:1046380042F80C3B364B03F1100C164618685968C3
:10464800083303C663453246F7D1324E308855F0F9
:1046580082FD314B2D491A68B88028681EF046FA49
:104668002E4D2549254B2860B0F1FF3F08BF0B466A
:1046780002462B49224815F05BFA2D686B1C0CD1B9
:1046880064F0D8F84DF003FA2A4601461E4815F0A2
:104698004FFA64F0CFF84DF0FFF9224802F0B0FB72
:1046A800214D32882860009203464FF480611F4AEA
:1046B800206815F065FA4BF0BEFB236802460A49EC
:1046C800002054F058FD4BF0B6FB2268014606481E
:1046D80015F02EFA286803B0BDE8F0404CF0C1BAD6
:1046E800C41F002068C106086AAE0608020001005F
:1046F800E8B8002091C106088C5A0808B796070840
:104708008CBE0608A8C106089ABE0608F01F00203D
:104718001B52070854BF0020ECB80020E4B8002062
:10472800BCC10608FC1F0020CC1F0020CEC1060813
:104738002DE9F04385B0314C2668C6B9304D4FF4A9
:104748008061304A286815F01BFA4BF074FB2B681F
:1047580002462D49304654F00EFD4BF06CFB2A689A
:104768000146294815F0E4F9236801332360274BF3
:10477800274D284E284801930095002340F2CF4248
:10478800314600681EF040FADFF894800028C8F827
:1047980000002FDD002723683754013305F10C0092
:1047A800236002F02DFBDFF87C90154DC9F800005E
:1047B8000296D8F800304FF48061CDE90003174A1B
:1047C8002368286815F0DCF94BF035FB2B680246A6
:1047D8000D49384654F0CFFC4BF02DFB2A680146B2
:1047E800094815F0A5F9D9F8000005B0BDE8F0436F
:1047F8004CF037BA05B0BDE8F08300BFC81F0020F1
:10480800C41F0020F6C106086AAE0608ECB80020EE
:10481800D01F002055770020E8B800200EC20608F7
:10482800E4B80020CC1F002010B52A4C05F086FA09
:1048380005F01EFC236F012023F0070343F0030358
:10484800236705F03FFC244B01219B6A3E20DB01D6
:104858005EBF4FF48032214B9A62D4F8203123F0A6
:10486800070343F00203C4F82031D4F8283123F0B9
:10487800070343F00203C4F82831D4F8403123F089
:10488800030343F00203C4F84031D4F8603123F045
:10489800030343F00203C4F8603104F095FFD4F831
:1048A8004032002023F0030343F00203C4F84032EF
:1048B800D4F8003223F0070343F00203C4F80032AF
:1048C800D4F8083223F0070343F00203C4F808328F
:1048D80010BD00BF008000500040005A0060005A20
:1048E800064B1B681A7A022A04D812B11B68044ABC
:1048F80013607047032AF9D0704700BF00B9002041
:104908001020002070B5A2B01E4D0BAC0FCD0FC407
:1049180095E80F0084E80F0000244FF48013CDE9D8
:1049280002440494019313AD01AE0FCE0FC5164B8C
:1049380006AE2B60154B18ADCDE9074409940693D4
:104948000FCE0FC52022124B13A92B60114B124812
:104958001D93124B2094CDE91E23114B0BAA2193D2
:10496800104B0AF05DFF04469DF87F304FF4E130AC
:10497800002B0CBF032100214CF0CCF9204622B0BB
:1049880070BD00BF90CE06083C00015B010010001E
:104998004400015B257C0020242100200101010046
:1049A80014B900201420002001484EF00BBD00BFB0
:1049B8002421002008B508484CF00CFA07484CF0B0
:1049C80009FA07484CF006FA06484CF003FABDE825
:1049D800084005484CF0FEB910CF0608F8CE060886
:1049E800E0CE0608C8CE0608B0CE0608F8B50C46D4
:1049F800064611462046154655F043FC074628460C
:104A080002F0FEF9033C012C054604D947B13146B2
:104A1800064815F08DF82846BDE8F8404CF021B955
:104A280002463146024815F083F8F4E76DD50608CA
:104A38008DD506080121024B8140186865F06CBBD2
:104A48008421002008B5074B4FF0FF31186865F046
:104A580017FC30B140F2C631034B044A044849F010
:104A6800B7FF08BD882100209AD50608E9D90608AD
:104A7800CFD5060808B5064B186865F035FC30B187
:104A88004FF47371034B044A044849F0A1FF08BD71
:104A98008821002034D60608D0D90608CFD50608C4
:104AA80073B5002300220546CDE9002365F08EF991
:104AB8006A4665F0ABF900982D4A0199D2E90232AD
:104AC800C01A61EB02012B4ACDE90001FBF728FC73
:104AD800284802F0E3F9284B002814BF06461E4672
:104AE8006B68002B41D1AC6814F001040DD0012192
:104AF800224A2348FFF77AFF204802F081F931461D
:104B0800044602461F4815F013F8AB689A070DD5FE
:104B180003211D4A1D48FFF769FF1B4802F070F981
:104B28003146044602461A4815F002F8AB685B079E
:104B38000DD50421174A1848FFF758FF154802F009
:104B48005FF9314604460246144814F0F1FF204646
:104B58004CF087F830464CF084F86A681AB110496E
:104B6800104814F0E5FF02B070BD0024EFE700BF65
:104B7800A01000209010002044FA0608567C00205F
:104B88005AD6060861D60608767C002081D6060823
:104B98008DD60608867C0020B5D60608C0D606083D
:104BA80090DB0608EAD60608F7B500220023CDE90F
:104BB800002344680546324E64B12146314814F05A
:104BC800B7FF0120FFF736FF0121306865F0DDFAF5
:104BD80003B0F0BD502221462B4863F05CF92B4806
:104BE80014F0A6FF01212A4A2A48FFF7FFFE2146B2
:104BF800254A2948FFF7FAFE0221284A2848FFF7E4
:104C0800F5FE0321274A2848FFF7F0FE274A04212A
:104C18002748FFF7EBFE65F0D9F86A4665F0F6F825
:104C2800DDE900CE234BD3E90627BCEB02026EEB8D
:104C38000707D3E90810891847EB0000C3E90810F3
:104C4800996A1D48013199624FF47A71B2FBF1F10A
:104C5800CDE90027C3E900CEC3E902CE14F068FF0E
:104C68002046FFF7E7FE0221306865F08EFA6A6891
:104C7800002AADD01149124814F05AFFA8E700BF26
:104C88008421002004D70608467C002026D7060881
:104C9800567C00205AD6060833D70608667C0020C2
:104CA8003ED70608767C00204CD70608867C002074
:104CB8005BD70608A01000206CD7060873DB06082F
:104CC800EAD60608F7B50023002205461548CDE9BF
:104CD800002314F02DFF65F079F86A4665F096F820
:104CE800DDE90010104BD3E904248A1840EB0404D2
:104CF800D3E90276D21B64EB0604C3E90424C3E9B2
:104D08000010C3E906106A681AB10849084814F087
:104D18000FFF0120FFF78EFE0022064B1A7003B02A
:104D2800F0BD00BF75D70608A010002053DB0608A9
:104D3800EAD60608457C002010B50F490446A1F1C3
:104D4800280055F055FA18B90C490D4814F0F0FE32
:104D58000220FFF76FFE0120FFF76CFE094B0121CF
:104D6800186865F012FA62682AB1BDE81040064971
:104D7800064814F0DDBE10BD702100204821002037
:104D880085D706088421002030DB0608EAD6060805
:104D98004168014814F0CCBEACD70608F7B500232B
:104DA80000221B4DCDE900232B780446052B1BD18F
:104DB8008368DBB2052B17D065F008F86A4665F002
:104DC80025F8DDE90016134B9F68D3E904208A18FB
:104DD80046EB0000D21BDF68C3E9001660EB070052
:104DE800C3E90420C3E90616A0682870C0B202F01F
:104DF8001DF8014618B1A268074814F099FE6268C8
:104E08001AB10649064814F093FE03B0F0BD00BF7E
:104E1800457C0020A0100020D9D7060812DB060820
:104E2800EAD6060842681AB10249034814F080BE5F
:104E3800704700BFF9DA0608EAD6060842681AB1D0
:104E48000249034814F074BE704700BFD7DA060859
:104E5800EAD6060842681AB10249034814F068BE47
:104E6800704700BFB9DA0608EAD6060842681AB1E0
:104E78000249034814F05CBE704700BFA1DA060877
:104E8800EAD6060842681AB10249034814F050BE2F
:104E9800704700BF76DA0608EAD6060842681AB1F3
:104EA8000249034814F044BE704700BF53DA0608AD
:104EB800EAD6060842681AB10249034814F038BE17
:104EC800704700BF3BDA0608EAD6060808B50C4862
:104ED80005F0D8FE0B4B186030B94FF4E3710A4B5C
:104EE8000A4A0B4849F074FD0A4805F091FE0A4B3E
:104EF800186020B94FF4E571084B044AF1E708BD82
:104F0800E4DB060888210020F1D7060824DA060821
:104F1800CFD50608D4DB06088421002007D8060868
:104F280008B50B46014603480322006865F04BF9B3
:104F3800C00F08BD8421002030B5B3B00023002283
:104F48008DF807300023CDE90223FFF77BFD3C22D3
:104F58005A495B4863F012F80DF1070055F039FA29
:104F6800024618B15749584814F0E2FD9DF8071059
:104F780031B1564814F0DCFDFFF77CFD33B030BD8D
:104F88004F4CB22205A862F086FF94F8210001F088
:104F980079FF054694F8240055F0A4FA014618B1A3
:104FA8004B4814F0C5FDE7E72946B22205A862F090
:104FB800E5FF022305A88DF8803055F0A6FA0146D2
:104FC80030B1444814F0B4FD0520FFF733FDD3E7B2
:104FD800B4F9220055F0CDF9014620B13E4814F04D
:104FE800A7FD0620F1E73D4855F0C0FA014608B193
:104FF8003B48D6E73B4B13F8012B0AB989B203E0CB
:105008000131B1F5006FF6D1013189B20220354A7C
:1050180055F06AF9014628B9334B13F8012B32B918
:1050280089B208E0314814F083FD0B20CDE7013147
:10503800B1F5006FF1D1013189B206202A4A55F045
:105048006AF9014628B92A4B13F8012B32B989B2FB
:1050580008E0284814F06CFD0C20B6E70131B1F5E2
:10506800006FF1D1013189B20120214A55F06AF966
:10507800014620B1204814F05BFD0D20A5E71F492B
:10508800A1F1280055F0B4F8044680B964F09EFEFA
:1050980002AA64F0BBFEDDE90201194BC3E9000175
:1050A800C3E90201C3E906010549164879E7042066
:1050B800FFF7C0FC2146144873E700BFF4DB06087D
:1050C8004821002002DA0608EAD606081FD8060892
:1050D8004AD8060874D80608A8D806084DD5060880
:1050E800CFD8060828CF0608A5D10608FED8060896
:1050F80058D4060834D9060869D906087021002052
:10510800A01000209ED90608B5D9060810B5FFF7EB
:1051180099FC034B1C78FFF7ADFC204610BD00BF7F
:10512800457C002037B5002300220446184DCDE900
:105138000023FFF787FC64F049FE6A4664F066FEC8
:1051480030222946204662F019FFDDE90023C4E930
:105158000023D5E90010521A0E4963EB00030978C1
:10516800CDE9002305290AD0D4E90810891843EBB2
:105178000003C4E90813FFF77DFC03B030BDD4E990
:105188000410891843EB0003C4E90413F3E700BFD4
:10519800A0100020457C0020004870478C2100208A
:1051A8002DE9F04F8DB0B34D40F2FF312846B24A99
:1051B80014F0E6FC40F2FF34DFF81883031EC4BF86
:1051C800E41AED1898F80030AC4EAD4FC8BFA4B241
:1051D800002B40F02081FFF7DFFF014630600520FB
:1051E8004AF0A8FE3168386007204AF0A3FEDFF8CD
:1051F800E8923368C9F800002BB33B681BB3A14899
:1052080055F00CF9F8B901209F4955F03AF8D0B992
:105218009C4801F017FEDFF8ACB2DFF8A0A2CBF88B
:105228000000994801F0ECFD0346CAF80000DBF8DD
:10523800000010B1002B40F0E2804BF012FDDAF8CC
:1052480000004BF00EFD21462846904A14F098FCC9
:105258008F4E0028C2BF2D18201A84B23046FFF79F
:1052680061FFD6E900018B4AFBF75AF8894801F03B
:1052780015FE83463046FFF755FFD6E90201854AF9
:10528800FBF74EF8834801F009FE82463046FFF7E7
:1052980049FFD6E904017F4AFBF742F87D4801F04F
:1052A800FDFD81463046FFF73DFFD6E90601794A04
:1052B800FBF736F8774801F0F1FD80463046FFF7F6
:1052C80031FFD6E90801734AFBF72AF8714801F063
:1052D800E5FDD6E9082342F2107C0746D6E9040129
:1052E8008218A0FB0C0E41EB03030CFB01E149F013
:1052F800DFF9642283B2B3FBF2F3DBB203EB830280
:1053080002EB8202A0EB8200C0B2CDE90530CDE904
:105318000387CDE901A9B36A21465F4A284600936D
:105328005B4614F02DFC0028C2BF2D18201A84B249
:1053380058464BF096FC50464BF093FC48464BF0D1
:1053480090FC40464BF08DFC38464BF08AFC2146D9
:1053580028464E4A14F014FC00230028C2BF2D181A
:10536800201A84B20DF12F008DF82F3055F06EF809
:1053780098BB9DF82F304949082B88BF08230DF1A9
:105388002F0088BF8DF82F3055F075F8074620BBE1
:105398009DF82F30082B20D821462846404A14F083
:1053A800EFFB404E0028C8BF2D18DFF8F080C4BFBF
:1053B800201A84B206F110099DF82F305FFA87FA97
:1053C800534500F2A08021462846374A14F0D8FBFE
:1053D8000028C2BF2D18201A84B221462846334A15
:1053E80014F0CEFB00220028C4BF201A84B2214B3F
:1053F800C4F5806080B21A540DB0BDE8F08FD9F8BA
:105408000030DFF8B4A0002B68D1294BCAF800306F
:10541800012388F80030336800201E68254B002ED1
:1054280008BF1E46244BD3F800803B689F68D3F81A
:105438001090D3F818A001F0FFFC204B21461B6800
:105448001F4A09931F4B1B68CDE9059ACDE907034D
:105458001D4B284601931D4BCDE903870093029607
:105468001B4B14F08DFB0028C2BF2D18201A84B2E4
:10547800E9E600BF487D002037DC0608AC210020A3
:10548800A82100203F7D00202F7D0020B7DD0608E1
:10549800E0100020D0100020CDDC0608EF7C0020B2
:1054A80064DD0608967C002061DD0608BBB80608A6
:1054B80044FA060830DC0608982100209C210020C8
:1054C80048DC0608A0210020B2DC0608C9DC060872
:1054D8005BB20608477D0020A421002040204BF045
:1054E800BEFB2A4AD9F80030002808BF10469A693E
:1054F800CAF8000001921A69402100929B68244A68
:1055080014F03EFB84E7234908EBCA0054F0CCFFB3
:10551800002839D1484601F073FC8346002833D06F
:1055280096F845302146099396F844301A4A08936C
:10553800F38F0793B38F0693736B0593336B0493C1
:10554800F36A0393B36A0293736A0193336A00930D
:105558000346284614F014FB021EC8BFAD1858466F
:10556800C4BFA21A94B24BF07CFB9DF82F30013BCC
:105578009A4509DA21462846084A14F001FB031E19
:10558800C2BFED18E31A9CB2013715E744FA0608C2
:105598003BDC0608967C0020BADD0608B7DD060865
:1055A80008B5FFF7FDFD024B9881184608BD00BFFE
:1055B80028B9002008B5074B4FF0FF31186864F090
:1055C8005FFE30B140F28321034B044A044849F09E
:1055D800FFF908BDD0210020E7DD0608BADF06087C
:1055E80028DE060808B5064B186864F07DFE30B161
:1055F80040F28921034B044A044849F0E9F908BDFF
:10560800D021002091DE0608A1DF060828DE060862
:1056180008B5044800F06CFDBDE80840024800F0F9
:1056280045BD00BFC3DE0608D421002038B5837805
:105638000546012B4FF080010CD000F079FC0446A0
:1056480030B115484FF48061A0614BF091FBA08107
:10565800204638BD00F06CFC044660B9802128461D
:1056680000F066FC0446A0B10C484FF48061A061CC
:105678004BF07EFBA0814523A37032236360FFF7C4
:1056880099FFFFF78DFDA081FFF7ACFF044BA361E5
:10569800DEE78070FFDE00BFCEDE0608EDDE06081E
:1056A800487D002070B500232248C0E90533C36156
:1056B800214B0360214B4360214B8360214B0361E5
:1056C8000123037300F062FE054630B140F2091170
:1056D8001D4B1E4A1E4849F07BF91E4805F0D2FAB8
:1056E8001D4B186020B94FF487711C4B174AF1E71E
:1056F8001B4E284632461B491DF0B0F9012804D03C
:1057080040F21111184B114AE4E7184B41F233608B
:1057180046F8103C54F01FFD42F21073C6E90735F5
:10572800134B26F8080CB361124B7361BDE8704047
:10573800FFF76EBFB021002001DF0608C7DE0608AC
:105748000DDF06083556000815BB0608D3DF060826
:1057580028DE060804E00608D021002011DF06082C
:10576800E421002033DF06083FDF0608C3DE060811
:1057780053FF0408A9550008402906D1C378202BF7
:1057880008D005D813F0EF0F04D04FF0FF30704762
:10579800302BFAD18078A528F7D8872806D85F2833
:1057A80002D013D804280AD800207047094B783053
:1057B800C0B2C34003F00103013B58B270474138FF
:1057C80004284FF0FF3098BF0020704780F0800019
:1057D8000628F6E7B100003F2DE9F04F89B0002612
:1057E8000F46154604469846149B9DF84CA0CDE9F3
:1057F80006320390059000EB0209079B23B9079531
:10580800002E45D100264CE0BAF1080F069B2CD19A
:10581800FF2B26D89D42059A23D31A44944220D8B8
:105828004A451ED85A1C2146164405A82A464AF05D
:105838007BFF07900028E2D0059B1B781909DED171
:105848002146069305A801234AF06EFF07AB07908F
:10585800009322462B4605A906A84AF073FF0028A4
:10586800CBD0002009B0BDE8F08FBAF10B0FCFD034
:10587800BAF10F0FCCD0BAF1140FC9D0BAF1110F89
:1058880001D1022BC5E7BAF1040FC3D1082BC0E739
:10589800013EB7D0FB68B0B29847C8F800000028AE
:1058A800DFD0129BAAF1040A1E800123D8F80070E9
:1058B8005FFA8AFBD8F80020B91AB14201DA0799D1
:1058C80009B90398CEE76BB90123234903FA0BF30F
:1058D8000B4204D113F0900F03D02F2300E02623AE
:1058E8003B700137DDF85090BA1A4A44B242B8DC2E
:1058F800A9450399B5D801EB09039C42B1D86219AF
:105908009342AED84A46384662F038FB4B462A46A0
:10591800214603A84AF008FF034607904F4403981E
:10592800002B9FD003785FEA13199BD10DF1480A29
:105938004AF8083F2146012303A84AF0F5FE07ABC1
:105948000790009322462B46504603A94AF0FAFED8
:105958004B460028AED084E7012801002DE9F04F1E
:105968008BB081460F461D46164622B900242046B4
:105978000BB0BDE8F08F0329F8D90028F6D04AF01B
:1059880029FF04460028F1D03278314622F03F033F
:105998002B70737802F03002C270837073883A46B5
:1059A8005BBA0381331D069306A800234AF0BCFEA8
:1059B8003278079002F00F022270CAB1082A6DD817
:1059C8002369002B6AD19742069967D38B189E42A8
:1059D80064D8F019834261D848464AF03BFF2061F9
:1059E80000285BD03A463146237806A84AF09CFE48
:1059F8004FF0000B069BDFF8BCA39B1BFB1A079319
:105A0800DDE90632002A00F0D0811A78FF2A0FD18A
:105A18009A1BBA420ADA1A78FF2A3FD101339E1B31
:105A2800BF1BBFB2A781002F38D0A361002336E087
:105A380002F00F03120931460893099201233A46EE
:105A480006A84AF071FE07AD07903B46324600951E
:105A580006A909A84AF076FE00BB099B03EB0B08D0
:105A68001FFA88F8434519D8C34517D83B4632462C
:105A7800009506A908A8CDF824804AF063FE68B905
:105A8800B8F11C0F0DD8B8F1020F07D92AFA08F39C
:105A9800DB070CD4DDE90725954215D9012363708E
:105AA80065E7B8F1230F02D0B8F13C0FF6D12146D3
:105AB80048464AF099FE0028F0D0DDE90725AA42B9
:105AC800ECD3B8F1230F4BD8B8F1020FE6D9A8F1FF
